:040000008A15002835
:0E000600213083120313FD00FD0B07280800B4
:100014000F3083120313FC004730FD00FD0B102842
:0A002400FC0B10280000000008008B
:06002E00000000000800C4
:1000340083120317901B2128031388132328031307
:1000440088170317101B2928031308132B280313DD
:1000540008170317901A312803138812332803133F
:1000640088160317101A3928031308123B280313A0
:1000740008166E183F280814402808108814172002
:100084008810031790194928031388134B28031366
:10009400881703171019512803130813532803133F
:1000A4000817031790185928031388125B280313A1
:1000B4008816031710186128031308126328031302
:1000C40008166E1867280814682808108814172062
:0E00D40088106E1C6F280A2070280320080078
:0E00E200831603134A088A00490882000800AA
:1000F00083160313141986281F301105F1007108A7
:10010000003A031D86280130F0008728F00108001E
:10011000831203136E1083166A088312031790006C
:060120001A206E14080015
:10012600831203138C112108930045088316EA00F5
:10013600831246088316EB00831247088316EC00E9
:10014600831248088316ED008316141DD3288312E4
:1001560045084604470448040319D22883166A084A
:100166006B046C046D04031DC92848088400043020
:100176008000840A4608C9004708CA0071208A110F
:100186000A12013083120313F00016290130831678
:10019600EA02031CEB02031CEC02031CED02A72877
:1001A600831245088316EA00831246088316EB007D
:1001B600831247088316EC00831248088316ED0065
:1001C60083128C190E29450846044704480403196E
:1001D6000D2983166A086B046C046D04031D04293B
:1001E6004808840004308000840A4608C90047088D
:1001F600CA0071208A110A12013083120313F0001B
:10020600162901308316EA02031CEB02031CEC02DA
:10021600031CED02E3288316111B1329F00116298E
:0802260011150230F000080080
:10022E008312031345088316EC00831246088316C7
:10023E00ED00831247088316EE00831248088316DA
:10024E00EF00EA01EB016B08123C031D30296A082E
:10025E008E3C031C3B2978207008031937293B2953
:10026E00EA0A0319EB0A2A2912306B02031D4129EF
:10027E008F306A02031C46297B30F000742911145A
:10028E008316111C7329831245084604470448043B
:10029E000319722983166C086D046E046F04031D16
:1002AE0069294808840005308000840A4608C90080
:1002BE004708CA0071208A110A12013083120313F3
:1002CE00F000742901308316EC02031CED02031CAE
:0C02DE00EE02031CEF024729F0010800AB
:0802EA0083160313111508002F
:1002F20083120313F8010830FC00700DF80D740826
:10030200F80203188629F8070310F00DFC0B7E296A
:020312000800E1
:1003140017218316031366088312A1009320831602
:10032400031367088312A10093208316031368083C
:0A0334008312A10093207521080038
:10033E00B129803083160313E600C429C030E600CD
:10034E00C4299430E600C429D430E600C429803094
:10035E00E600C429831603136608013A0319A0297F
:10036E006608023A0319A5296608033A0319A82953
:10037E006608043A0319AB29AE296703F000660834
:10038E00F0077008E60070088312031790001A2019
:10039E006E108316E90169086807840000080319C6
:1003AE00E1296908680784000008EA00882083169E
:0A03BE00E90AD22983126E14080028
:1003C80083160313E7016608093C0318082A0A3054
:1003D800F4006608F000792170088316E7007008B9
:1003E800E700E70D6710E70D6710E70D6710E70DE9
:1003F80067100A30F4006608F00079217808F000E8
:1004080070088316E7040A2A6608E7006708F00000
:020418000800DA
:10041A00831203131A08F100981C152A18121816C9
:06042A007108F00008005B
:100430008312031345088316D700831246088316D8
:10044000D800831247088316D90083124808831600
:10045000DA0083128C118316911583128C19552A98
:1004600045084604470448040319542A83165708CC
:10047000580459045A04031D4A2A480884000330CA
:100480008000840A4608C9004708CA0071208A1102
:100490000A12552A013083160313D702031CD8020F
:1004A000031CD902031CDA022D2A0313831213083A
:1004B0008316D60083122008003A031D622A831691
:1004C0009116642A8316911283128C1183161116C9
:1004D000831245088316D700831246088316D80076
:1004E000831247088316D900831248088316DA005E
:1004F00083128C19A02A45084604470448040319AE
:100500009F2A83165708580459045A04031D952A34
:100510004808840003308000840A4608C900470860
:10052000CA0071208A110A12A02A0130831603130F
:10053000D702031CD802031CD902031CDA02782A52
:0A054000831603135608F0000800AC
:10054A008312031345088316D600831246088316BE
:10055A00D700831247088316D800831248088316E7
:10056A00D90091148316911CE02A83124508460487
:10057A00470448040319DF2A831656085704580407
:10058A005904031DD52A4808840006308000840ACD
:10059A004608C9004708CA0071208A110A12E02ACF
:1005AA00013083160313D602031CD702031CD80298
:0805BA00031CD902B72A080056
:0E05C2000030831203138C1A0130F000080081
:1005D0008316031388100810081288120813881352
:1005E00083128810081088130813881208120A2032
:1005F0000A200A20881608168814172088100A2056
:100600008814172088100A208814172088100A20C0
:1006100008128814172088100A20881417208810C0
:10062000881288178814172088100A208813081643
:1006300088141720881008128814172088100A20A0
:1006400088141720881008168814172088100A208C
:10065000081288141720881088170817881608169B
:0C0660008814172088100A206E1408006F
:10066C00013083160313E6000130E7003030E80058
:10067C009F2102308316E6000130E7004130E8008C
:10068C009F210A30F40083165608F000792130308F
:10069C0070078316EA0088200A30F4008316560887
:1006AC00F00079217808F000303070078316EA00EA
:1006BC0088203A308316EA0088200A30F40083162A
:1006CC005708F0007921303070078316EA00882033
:1006DC000A30F40083165708F00079217808F000EE
:1006EC00303070078316EA0088201F30FB00713011
:1006FC00FC001E30FD00FD0B812BFC0B812BFB0B3A
:0E070C00812B00000130031790001A20080016
:10071A00831603135608E600E4217008D600D701B1
:10072A005808E600E4217008D800D9015A08E60002
:10073A00E4217008DA00DB015C08E600E4217008B5
:10074A00DC00DD015E08E600E4217008DE00DF015E
:10075A006008E600E4217008E000E1016208E600B2
:10076A00E4217008E200E301E401E5018030F000D1
:10077A00803065067002031DC42B6408063C031C06
:10078A003B2CFF2BD030E6006408E7005608E8004F
:10079A008A21372CD030E6006408E7005808E800C0
:1007AA008A21372CD030E6006408E7005A08E800AE
:1007BA008A21372CD030E6006408E7005C08E8009C
:1007CA008A21372CD030E6006408E7005E08E8008A
:1007DA008A21372CD030E6006408E7006008E80078
:1007EA008A21372CD030E6006408E7006208E80066
:1007FA008A21372C00306506031D052C003064065B
:10080A000319C72B00306506031D0D2C0130640641
:10081A000319CF2B00306506031D152C0230640620
:10082A000319D72B00306506031D1D2C03306406FF
:10083A000319DF2B00306506031D252C04306406DE
:10084A000319E72B00306506031D2D2C05306406BD
:10085A000319EF2B00306506031D352C063064069C
:0E086A000319F72BE40A0319E50ABB2B08005B
:10087800831203137008F100F0010830FC007108BE
:10088800F40C03184B2CFC0B442CF101003403101E
:10089800502CF40C0318F107F10CF00CFC0B4D2C48
:0208A800080046
:1008AA00783083160313BA000030BB000030BC0056
:1008BA0000301730B7000130B8000030B9000030FE
:1008CA00A530B4000230B5000030B6000030183050
:1008DA00BD000230BE002030BF0000309330C3009C
:1008EA000030C4002130C50000307530C00001302E
:1008FA00C1000030C2000030141394130716871584
:08090A0038308312940008004C
:0E091200831603134A088A0049088200080071
:10092000831603135008F2007208F000F20A7008F0
:100930008400000803199D2C942C50087202F000CA
:0C0940000130F002F101031CF10308007B
:10094C0017218316031350088312A10093208316DA
:10095C00031351088312A1009320A52283160313BD
:10096C00500A8312A100932083120313A0011822B2
:10097C007008D200D30175215208F0005308F10021
:02098C00080061
:10098E008316031387150716071186018312860136
:08099E00861206128611080002
:1009A6008316031350084B3E8400510880005008FC
:1009B600553E8400520880005008AA3E8400530821
:1009C60080005008A03E84005408800050085F3E16
:1009D60084005508800050084B3E84000008D6006D
:0E09E6005008553E84000008D7003623080054
:0C09F400E8220C30031790001A200800C5
:100A0000143083160313930055242B088316D60045
:100A1000D70183122A088316D800D90183122C0823
:100A20008316DA00DB0183122F088316DC00DD0158
:100A300083122E088316DE00DF0183122D08831631
:100A4000E000E101831229088316E200E3018D230F
:020A500008009C
:100A5200831603135008F000F00CF013F00CF0139F
:100A6200F00CF013F00CF0130A30F4003C240F30B9
:0C0A720083165005F1007108F007080021
:100A7E0083160313D401D501520803197F2D520892
:100A8E00FF3A03194B2DD203E1227008003A031DE1
:100A9E00512D4B2D0D2270088316D300540850078C
:100AAE00840070088000D40A55085107840000089D
:100ABE005306031D642DD50A6C2DD50151088400F3
:100ACE0000085306031D6C2DD50A550851078400E6
:100ADE000008003A031D7E2D55085402F000F10166
:100AEE00031CF1037008500784008001822D432DF2
:080AFE0050088400800108008B
:100B0600E1227008013A031D922DFF3086006930FC
:100B16008316D0004930D1000530D2003F25831618
:100B26006930D00090248030F20080307106720265
:100B3600031D9F2D7008003C0318E92D83126908D8
:100B46008316CB00CB0CCB13CB0CCB13CB0CCB131C
:100B5600CB0CCB130F30CB05831269088316CC0060
:100B6600CC0CCC130F30CC05831269088316CD004C
:100B7600CD0CCD13CD0CCD130F30CD0583126908E6
:100B86008316CE00CE0CCE13CE0CCE13CE0CCE13C7
:100B96000F30CE0583126A088316D0002925700807
:100BA600CF0083126B088316D00029258312860195
:100BB60083164B08D0004F08D1007008D2004C08AD
:0E0BC600D3004D08D4004E08D500D3240800FB
:100BD4008316031398169030831298008316871790
:100BE400071383128C1EF92D1A08F000F32D080048
:0E0BF40083120313E901EA01EB01EC01080092
:100C0200C724FA240025AA30831286000430FB0090
:100C12000C30FC003330FD00FD0B0D2EFC0B0D2EB5
:100C2200FB0B0D2E00000000553086000430FB0047
:100C32000C30FC003330FD00FD0B1D2EFC0B1D2E75
:100C4200FB0B1D2E00000000AA3086000430FB00C2
:100C52000C30FC003330FD00FD0B2D2EFC0B2D2E35
:100C6200FB0B2D2E00000000553086000430FB00E7
:100C72000C30FC003330FD00FD0B3D2EFC0B3D2EF5
:0C0C8200FB0B3D2E000000008601080066
:100C8E0089248A110A128000840AC90A0319CA0A21
:080C9E00F003031D472E0800BE
:100CA600D03083160313D000D101A6247008831216
:100CB600AB00D0308316D0000130D100A6247008D6
:100CC6008312AA00D0308316D0000230D100A624A9
:100CD60070088312AC00D0308316D0000330D100E8
:100CE600A62470088312AF00D0308316D0000430DB
:100CF600D100A62470088312AE00D0308316D0002F
:100D06000530D100A62470088312AD00D0308316BA
:100D1600D0000630D100A62470088312A9002B0843
:100D26008316D000292570088312AB002A08831683
:100D3600D000292570088312AA002C088316D0003B
:100D4600292570088312AC002F088316D0002925A8
:100D560070088312AF002E088316D000292570086C
:100D66008312AE002D088316D00029257008831241
:100D7600AD0029088316D000292570088312A90022
:100D860001308316E6000130E7002230E8009F219B
:100D96000A30F4002C08F0007921303070078316F1
:100DA600EA0088200A30F4002C08F000792178083F
:100DB600F000303070078316EA0088203A30831638
:100DC600EA0088200A30F4002A08F0007921303041
:100DD60070078316EA0088200A30F4002A08F0001B
:100DE60079217808F000303070078316EA008820F1
:100DF6003A308316EA0088200A30F4002B08F00007
:100E06007921303070078316EA0088200A30F40012
:100E16002B08F00079217808F0003030700783162F
:060E2600EA00882008002C
:100E800022308400293083120313F00016308316B9
:0A0E9000C9000730CA004726080019
:101000008A1140278A158A1101268A1533308316E2
:10101000990018158A11EA258A150230FB00043060
:10102000FC00BA30FD00FD0B1328FC0B1328FB0B52
:10103000132800008A11FA258A158A1153268A1569
:101040008A1183258A15831203132B08003A031D86
:101050005129EF010A306F02031851296F084B3EE6
:10106000840000082C06031D4F296F08553E84009C
:1010700000082A06031D4F296F08AA3E84000018A5
:1010800043280610442806146F08A03E8400001868
:101090004B2886104C2886146F085F3E8400001889
:1010A000532806115428061586151530FB004B30C1
:1010B000FC00BE30FD00FD0B5B28FC0B5B28FB0B2E
:1010C0005B280000AA3086000430FB000C30FC00D6
:1010D0003330FD00FD0B6A28FC0B6A28FB0B6A28E5
:1010E00000000000553086000430FB000C30FC008E
:1010F0003330FD00FD0B7A28FC0B7A28FB0B7A2895
:1011000000000000AA3086000430FB000C30FC0018
:101110003330FD00FD0B8A28FC0B8A28FB0B8A2844
:1011200000000000553086000430FB000C30FC004D
:101130003330FD00FD0B9A28FC0B9A28FB0B9A28F4
:101140000000000086010430FB000C30FC0033304E
:10115000FD00FD0BA928FC0BA928FB0BA92800000A
:101160000000AA3086000430FB000C30FC00333055
:10117000FD00FD0BB928FC0BB928FB0BB9280000BA
:101180000000553086000430FB000C30FC0033308A
:10119000FD00FD0BC928FC0BC928FB0BC92800006A
:1011A0000000AA3086000430FB000C30FC00333015
:1011B000FD00FD0BD928FC0BD928FB0BD92800001A
:1011C0000000553086000430FB000C30FC0033304A
:1011D000FD00FD0BE928FC0BE928FB0BE9280000CA
:1011E000000086010430FB000C30FC003330FD00B1
:1011F000FD0BF828FC0BF828FB0BF828000000007A
:10120000AA3086000430FB000C30FC003330FD00B7
:10121000FD0B0829FC0B0829FB0B08290000000026
:10122000553086000430FB000C30FC003330FD00EC
:10123000FD0B1829FC0B1829FB0B182900000000D6
:10124000AA3086000430FB000C30FC003330FD0077
:10125000FD0B2829FC0B2829FB0B28290000000086
:10126000553086000430FB000C30FC003330FD00AC
:10127000FD0B3829FC0B3829FB0B38290000000036
:1012800086010430FB000C30FC003330FD00FD0B08
:101290004729FC0B4729FB0B472900000000EF0AF8
:0612A0002A281A28522939
:0E0E2C0048344F34523441343A3420340034C8
:020E3A00123470
:020E3C003B3445
:020E3E00283456
:020E40000F346D
:020E4200033477
:020E44001E345A
:020E460007346F
:100E480041346C34613472346D3461343A34203452
:100E580020342034203420342034203420342034EA
:020E6800003454
:080E6A0048343A34203400340E
:080E72000034003400340034A8
:040E7A003B340034D1
:02400E004A2F37
:00000001FF
